:200000000C9434000C943E000C943E000C943E000C943E000C943E000C943E000C943E00FA
:200020000C943E000C943E000C943E000C943E000C943E000C943E000C943E000C943E00D0
:200040000C943E000C943E000C943E000C943E000C943E000C943E000C943E000C943E00B0
:200060000C943E000C943E0011241FBECFEFD4E0DEBFCDBF0E9440000C9440000C940000B5
:20008000238A008000C000E0008040E010A03191312300000000000000008000800080208D
:2000A0008521802080A080C0008000000120130080078836812082000404201000000280C4
:2000C000218001800184E7E03180319700C0000000009C01280061406100610020402020B1
:1C00E00000230190208020C0AC0124016440650061002040A0C7E084F884FFCF1F
:00000001FF
